{
  "contractName": "MonkeMarketplace",
  "abi": [
    {
      "inputs": [],
      "stateMutability": "nonpayable",
      "type": "constructor"
    },
    {
      "anonymous": false,
      "inputs": [
        {
          "indexed": false,
          "internalType": "address",
          "name": "nftContract",
          "type": "address"
        },
        {
          "indexed": false,
          "internalType": "uint256",
          "name": "tokenId",
          "type": "uint256"
        },
        {
          "indexed": false,
          "internalType": "address",
          "name": "seller",
          "type": "address"
        },
        {
          "indexed": false,
          "internalType": "address",
          "name": "owner",
          "type": "address"
        },
        {
          "indexed": false,
          "internalType": "uint256",
          "name": "price",
          "type": "uint256"
        }
      ],
      "name": "NFTListed",
      "type": "event"
    },
    {
      "anonymous": false,
      "inputs": [
        {
          "indexed": false,
          "internalType": "address",
          "name": "nftContract",
          "type": "address"
        },
        {
          "indexed": false,
          "internalType": "uint256",
          "name": "tokenId",
          "type": "uint256"
        },
        {
          "indexed": false,
          "internalType": "address",
          "name": "seller",
          "type": "address"
        },
        {
          "indexed": false,
          "internalType": "address",
          "name": "owner",
          "type": "address"
        },
        {
          "indexed": false,
          "internalType": "uint256",
          "name": "price",
          "type": "uint256"
        }
      ],
      "name": "NFTSold",
      "type": "event"
    },
    {
      "inputs": [],
      "name": "LISTING_FEE",
      "outputs": [
        {
          "internalType": "uint256",
          "name": "",
          "type": "uint256"
        }
      ],
      "stateMutability": "view",
      "type": "function",
      "constant": true
    },
    {
      "inputs": [
        {
          "internalType": "address",
          "name": "_nftContract",
          "type": "address"
        },
        {
          "internalType": "uint256",
          "name": "_tokenId",
          "type": "uint256"
        },
        {
          "internalType": "uint256",
          "name": "_price",
          "type": "uint256"
        }
      ],
      "name": "listNft",
      "outputs": [],
      "stateMutability": "payable",
      "type": "function",
      "payable": true
    },
    {
      "inputs": [
        {
          "internalType": "address",
          "name": "_nftContract",
          "type": "address"
        },
        {
          "internalType": "uint256",
          "name": "_tokenId",
          "type": "uint256"
        }
      ],
      "name": "buyNft",
      "outputs": [],
      "stateMutability": "payable",
      "type": "function",
      "payable": true
    },
    {
      "inputs": [
        {
          "internalType": "address",
          "name": "_nftContract",
          "type": "address"
        },
        {
          "internalType": "uint256",
          "name": "_tokenId",
          "type": "uint256"
        },
        {
          "internalType": "uint256",
          "name": "_price",
          "type": "uint256"
        }
      ],
      "name": "resellNft",
      "outputs": [],
      "stateMutability": "payable",
      "type": "function",
      "payable": true
    },
    {
      "inputs": [],
      "name": "getListingFee",
      "outputs": [
        {
          "internalType": "uint256",
          "name": "",
          "type": "uint256"
        }
      ],
      "stateMutability": "view",
      "type": "function",
      "constant": true
    },
    {
      "inputs": [],
      "name": "getListedNfts",
      "outputs": [
        {
          "components": [
            {
              "internalType": "address",
              "name": "nftContract",
              "type": "address"
            },
            {
              "internalType": "uint256",
              "name": "tokenId",
              "type": "uint256"
            },
            {
              "internalType": "address payable",
              "name": "seller",
              "type": "address"
            },
            {
              "internalType": "address payable",
              "name": "owner",
              "type": "address"
            },
            {
              "internalType": "uint256",
              "name": "price",
              "type": "uint256"
            },
            {
              "internalType": "bool",
              "name": "listed",
              "type": "bool"
            }
          ],
          "internalType": "struct MonkeMarketplace.NFT[]",
          "name": "",
          "type": "tuple[]"
        }
      ],
      "stateMutability": "view",
      "type": "function",
      "constant": true
    },
    {
      "inputs": [],
      "name": "getMyNfts",
      "outputs": [
        {
          "components": [
            {
              "internalType": "address",
              "name": "nftContract",
              "type": "address"
            },
            {
              "internalType": "uint256",
              "name": "tokenId",
              "type": "uint256"
            },
            {
              "internalType": "address payable",
              "name": "seller",
              "type": "address"
            },
            {
              "internalType": "address payable",
              "name": "owner",
              "type": "address"
            },
            {
              "internalType": "uint256",
              "name": "price",
              "type": "uint256"
            },
            {
              "internalType": "bool",
              "name": "listed",
              "type": "bool"
            }
          ],
          "internalType": "struct MonkeMarketplace.NFT[]",
          "name": "",
          "type": "tuple[]"
        }
      ],
      "stateMutability": "view",
      "type": "function",
      "constant": true
    },
    {
      "inputs": [],
      "name": "getMyListedNfts",
      "outputs": [
        {
          "components": [
            {
              "internalType": "address",
              "name": "nftContract",
              "type": "address"
            },
            {
              "internalType": "uint256",
              "name": "tokenId",
              "type": "uint256"
            },
            {
              "internalType": "address payable",
              "name": "seller",
              "type": "address"
            },
            {
              "internalType": "address payable",
              "name": "owner",
              "type": "address"
            },
            {
              "internalType": "uint256",
              "name": "price",
              "type": "uint256"
            },
            {
              "internalType": "bool",
              "name": "listed",
              "type": "bool"
            }
          ],
          "internalType": "struct MonkeMarketplace.NFT[]",
          "name": "",
          "type": "tuple[]"
        }
      ],
      "stateMutability": "view",
      "type": "function",
      "constant": true
    }
  ],
  "bytecode": "0x608060405266038d7ea4c6800060035534801561001b57600080fd5b50600160008190555033600460006101000a81548173ffffffffffffffffffffffffffffffffffffffff021916908373ffffffffffffffffffffffffffffffffffffffff160217905550611c44806100746000396000f3fe60806040526004361061007b5760003560e01c80634ddf4f8f1161004e5780634ddf4f8f1461011d5780638d6cb3fb14610139578063b8fe6abe14610164578063c922b17c1461018f5761007b565b8063047b07bf146100805780631f4cc4db146100ab5780632b86ae38146100d657806334f5b62414610101575b600080fd5b34801561008c57600080fd5b506100956101ab565b6040516100a2919061159e565b60405180910390f35b3480156100b757600080fd5b506100c06104de565b6040516100cd919061159e565b60405180910390f35b3480156100e257600080fd5b506100eb610883565b6040516100f891906115cf565b60405180910390f35b61011b60048036038101906101169190611647565b610889565b005b6101376004803603810190610132919061169a565b610aa1565b005b34801561014557600080fd5b5061014e610d34565b60405161015b919061159e565b60405180910390f35b34801561017057600080fd5b50610179610f9c565b60405161018691906115cf565b60405180910390f35b6101a960048036038101906101a49190611647565b610fa6565b005b606060006101b9600261128b565b90506000805b8281101561025e573373ffffffffffffffffffffffffffffffffffffffff16600560006001846101ef9190611709565b815260200190815260200160002060030160009054906101000a900473ffffffffffffffffffffffffffffffffffffffff1673ffffffffffffffffffffffffffffffffffffffff160361024b5781806102479061175f565b9250505b80806102569061175f565b9150506101bf565b5060008167ffffffffffffffff81111561027b5761027a6117a7565b5b6040519080825280602002602001820160405280156102b457816020015b6102a1611364565b8152602001906001900390816102995790505b5090506000805b848110156104d3573373ffffffffffffffffffffffffffffffffffffffff16600560006001846102eb9190611709565b815260200190815260200160002060030160009054906101000a900473ffffffffffffffffffffffffffffffffffffffff1673ffffffffffffffffffffffffffffffffffffffff16036104c057600560006001836103499190611709565b81526020019081526020016000206040518060c00160405290816000820160009054906101000a900473ffffffffffffffffffffffffffffffffffffffff1673ffffffffffffffffffffffffffffffffffffffff1673ffffffffffffffffffffffffffffffffffffffff168152602001600182015481526020016002820160009054906101000a900473ffffffffffffffffffffffffffffffffffffffff1673ffffffffffffffffffffffffffffffffffffffff1673ffffffffffffffffffffffffffffffffffffffff1681526020016003820160009054906101000a900473ffffffffffffffffffffffffffffffffffffffff1673ffffffffffffffffffffffffffffffffffffffff1673ffffffffffffffffffffffffffffffffffffffff168152602001600482015481526020016005820160009054906101000a900460ff1615151515815250508383815181106104a6576104a56117d6565b5b602002602001018190525081806104bc9061175f565b9250505b80806104cb9061175f565b9150506102bb565b508194505050505090565b606060006104ec600261128b565b90506000805b828110156105ca573373ffffffffffffffffffffffffffffffffffffffff16600560006001846105229190611709565b815260200190815260200160002060020160009054906101000a900473ffffffffffffffffffffffffffffffffffffffff1673ffffffffffffffffffffffffffffffffffffffff161480156105a35750600560006001836105839190611709565b815260200190815260200160002060050160009054906101000a900460ff165b156105b75781806105b39061175f565b9250505b80806105c29061175f565b9150506104f2565b5060008167ffffffffffffffff8111156105e7576105e66117a7565b5b60405190808252806020026020018201604052801561062057816020015b61060d611364565b8152602001906001900390816106055790505b5090506000805b84811015610878573373ffffffffffffffffffffffffffffffffffffffff16600560006001846106579190611709565b815260200190815260200160002060020160009054906101000a900473ffffffffffffffffffffffffffffffffffffffff1673ffffffffffffffffffffffffffffffffffffffff161480156106d85750600560006001836106b89190611709565b815260200190815260200160002060050160009054906101000a900460ff165b1561086557600560006001836106ee9190611709565b81526020019081526020016000206040518060c00160405290816000820160009054906101000a900473ffffffffffffffffffffffffffffffffffffffff1673ffffffffffffffffffffffffffffffffffffffff1673ffffffffffffffffffffffffffffffffffffffff168152602001600182015481526020016002820160009054906101000a900473ffffffffffffffffffffffffffffffffffffffff1673ffffffffffffffffffffffffffffffffffffffff1673ffffffffffffffffffffffffffffffffffffffff1681526020016003820160009054906101000a900473ffffffffffffffffffffffffffffffffffffffff1673ffffffffffffffffffffffffffffffffffffffff1673ffffffffffffffffffffffffffffffffffffffff168152602001600482015481526020016005820160009054906101000a900460ff16151515158152505083838151811061084b5761084a6117d6565b5b602002602001018190525081806108619061175f565b9250505b80806108709061175f565b915050610627565b508194505050505090565b60035481565b610891611299565b600081116108d4576040517f08c379a00000000000000000000000000000000000000000000000000000000081526004016108cb90611862565b60405180910390fd5b6003543414610918576040517f08c379a000000000000000000000000000000000000000000000000000000000815260040161090f906118ce565b60405180910390fd5b8273ffffffffffffffffffffffffffffffffffffffff166323b872dd3330856040518463ffffffff1660e01b8152600401610955939291906118fd565b600060405180830381600087803b15801561096f57600080fd5b505af1158015610983573d6000803e3d6000fd5b505050506000600560008481526020019081526020016000209050338160020160006101000a81548173ffffffffffffffffffffffffffffffffffffffff021916908373ffffffffffffffffffffffffffffffffffffffff160217905550308160030160006101000a81548173ffffffffffffffffffffffffffffffffffffffff021916908373ffffffffffffffffffffffffffffffffffffffff16021790555060018160050160006101000a81548160ff021916908315150217905550818160040181905550610a5460016112e8565b7fa0c6c0d02d86fdacecbaa5fdf5894bab204e31a778250474108540733a9b8d198484333086604051610a8b959493929190611934565b60405180910390a150610a9c611344565b505050565b610aa9611299565b60006005600083815260200190815260200160002090508060040154341015610b07576040517f08c379a0000000000000000000000000000000000000000000000000000000008152600401610afe906119f9565b60405180910390fd5b60003390508160020160009054906101000a900473ffffffffffffffffffffffffffffffffffffffff1673ffffffffffffffffffffffffffffffffffffffff166108fc349081150290604051600060405180830381858888f19350505050158015610b76573d6000803e3d6000fd5b508373ffffffffffffffffffffffffffffffffffffffff166323b872dd308385600101546040518463ffffffff1660e01b8152600401610bb893929190611a78565b600060405180830381600087803b158015610bd257600080fd5b505af1158015610be6573d6000803e3d6000fd5b50505050600460009054906101000a900473ffffffffffffffffffffffffffffffffffffffff1673ffffffffffffffffffffffffffffffffffffffff166108fc6003549081150290604051600060405180830381858888f19350505050158015610c54573d6000803e3d6000fd5b50808260030160006101000a81548173ffffffffffffffffffffffffffffffffffffffff021916908373ffffffffffffffffffffffffffffffffffffffff16021790555060008260050160006101000a81548160ff021916908315150217905550610cbf600161134e565b7f16f1dbd97e6bf646d429ed186cce832f1f7fd9907814293b83181e9970ab7bd28483600101548460020160009054906101000a900473ffffffffffffffffffffffffffffffffffffffff168434604051610d1e959493929190611aaf565b60405180910390a15050610d30611344565b5050565b60606000610d42600261128b565b90506000610d50600161128b565b82610d5b9190611b02565b905060008167ffffffffffffffff811115610d7957610d786117a7565b5b604051908082528060200260200182016040528015610db257816020015b610d9f611364565b815260200190600190039081610d975790505b5090506000805b84811015610f915760056000600183610dd29190611709565b815260200190815260200160002060050160009054906101000a900460ff1615610f7e5760056000600183610e079190611709565b81526020019081526020016000206040518060c00160405290816000820160009054906101000a900473ffffffffffffffffffffffffffffffffffffffff1673ffffffffffffffffffffffffffffffffffffffff1673ffffffffffffffffffffffffffffffffffffffff168152602001600182015481526020016002820160009054906101000a900473ffffffffffffffffffffffffffffffffffffffff1673ffffffffffffffffffffffffffffffffffffffff1673ffffffffffffffffffffffffffffffffffffffff1681526020016003820160009054906101000a900473ffffffffffffffffffffffffffffffffffffffff1673ffffffffffffffffffffffffffffffffffffffff1673ffffffffffffffffffffffffffffffffffffffff168152602001600482015481526020016005820160009054906101000a900460ff161515151581525050838381518110610f6457610f636117d6565b5b60200260200101819052508180610f7a9061175f565b9250505b8080610f899061175f565b915050610db9565b508194505050505090565b6000600354905090565b610fae611299565b60008111610ff1576040517f08c379a0000000000000000000000000000000000000000000000000000000008152600401610fe890611862565b60405180910390fd5b6003543414611035576040517f08c379a000000000000000000000000000000000000000000000000000000000815260040161102c906118ce565b60405180910390fd5b8273ffffffffffffffffffffffffffffffffffffffff166323b872dd3330856040518463ffffffff1660e01b8152600401611072939291906118fd565b600060405180830381600087803b15801561108c57600080fd5b505af11580156110a0573d6000803e3d6000fd5b505050506110ae600261134e565b6040518060c001604052808473ffffffffffffffffffffffffffffffffffffffff1681526020018381526020013373ffffffffffffffffffffffffffffffffffffffff1681526020013073ffffffffffffffffffffffffffffffffffffffff168152602001828152602001600115158152506005600084815260200190815260200160002060008201518160000160006101000a81548173ffffffffffffffffffffffffffffffffffffffff021916908373ffffffffffffffffffffffffffffffffffffffff1602179055506020820151816001015560408201518160020160006101000a81548173ffffffffffffffffffffffffffffffffffffffff021916908373ffffffffffffffffffffffffffffffffffffffff16021790555060608201518160030160006101000a81548173ffffffffffffffffffffffffffffffffffffffff021916908373ffffffffffffffffffffffffffffffffffffffff1602179055506080820151816004015560a08201518160050160006101000a81548160ff0219169083151502179055509050507fa0c6c0d02d86fdacecbaa5fdf5894bab204e31a778250474108540733a9b8d198383333085604051611276959493929190611934565b60405180910390a1611286611344565b505050565b600081600001549050919050565b6002600054036112de576040517f08c379a00000000000000000000000000000000000000000000000000000000081526004016112d590611b82565b60405180910390fd5b6002600081905550565b60008160000154905060008111611334576040517f08c379a000000000000000000000000000000000000000000000000000000000815260040161132b90611bee565b60405180910390fd5b6001810382600001819055505050565b6001600081905550565b6001816000016000828254019250508190555050565b6040518060c00160405280600073ffffffffffffffffffffffffffffffffffffffff16815260200160008152602001600073ffffffffffffffffffffffffffffffffffffffff168152602001600073ffffffffffffffffffffffffffffffffffffffff168152602001600081526020016000151581525090565b600081519050919050565b600082825260208201905092915050565b6000819050602082019050919050565b600073ffffffffffffffffffffffffffffffffffffffff82169050919050565b60006114358261140a565b9050919050565b6114458161142a565b82525050565b6000819050919050565b61145e8161144b565b82525050565b600061146f8261140a565b9050919050565b61147f81611464565b82525050565b60008115159050919050565b61149a81611485565b82525050565b60c0820160008201516114b6600085018261143c565b5060208201516114c96020850182611455565b5060408201516114dc6040850182611476565b5060608201516114ef6060850182611476565b5060808201516115026080850182611455565b5060a082015161151560a0850182611491565b50505050565b600061152783836114a0565b60c08301905092915050565b6000602082019050919050565b600061154b826113de565b61155581856113e9565b9350611560836113fa565b8060005b83811015611591578151611578888261151b565b975061158383611533565b925050600181019050611564565b5085935050505092915050565b600060208201905081810360008301526115b88184611540565b905092915050565b6115c98161144b565b82525050565b60006020820190506115e460008301846115c0565b92915050565b600080fd5b6115f88161142a565b811461160357600080fd5b50565b600081359050611615816115ef565b92915050565b6116248161144b565b811461162f57600080fd5b50565b6000813590506116418161161b565b92915050565b6000806000606084860312156116605761165f6115ea565b5b600061166e86828701611606565b935050602061167f86828701611632565b925050604061169086828701611632565b9150509250925092565b600080604083850312156116b1576116b06115ea565b5b60006116bf85828601611606565b92505060206116d085828601611632565b9150509250929050565b7f4e487b7100000000000000000000000000000000000000000000000000000000600052601160045260246000fd5b60006117148261144b565b915061171f8361144b565b9250827fffffffffffffffffffffffffffffffffffffffffffffffffffffffffffffffff03821115611754576117536116da565b5b828201905092915050565b600061176a8261144b565b91507fffffffffffffffffffffffffffffffffffffffffffffffffffffffffffffffff820361179c5761179b6116da565b5b600182019050919050565b7f4e487b7100000000000000000000000000000000000000000000000000000000600052604160045260246000fd5b7f4e487b7100000000000000000000000000000000000000000000000000000000600052603260045260246000fd5b600082825260208201905092915050565b7f5072696365206d757374206265206174206c6561737420312077656900000000600082015250565b600061184c601c83611805565b915061185782611816565b602082019050919050565b6000602082019050818103600083015261187b8161183f565b9050919050565b7f4e6f7420656e6f75676820657468657220666f72206c697374696e6720666565600082015250565b60006118b8602083611805565b91506118c382611882565b602082019050919050565b600060208201905081810360008301526118e7816118ab565b9050919050565b6118f78161142a565b82525050565b600060608201905061191260008301866118ee565b61191f60208301856118ee565b61192c60408301846115c0565b949350505050565b600060a08201905061194960008301886118ee565b61195660208301876115c0565b61196360408301866118ee565b61197060608301856118ee565b61197d60808301846115c0565b9695505050505050565b7f4e6f7420656e6f75676820657468657220746f20636f7665722061736b696e6760008201527f2070726963650000000000000000000000000000000000000000000000000000602082015250565b60006119e3602683611805565b91506119ee82611987565b604082019050919050565b60006020820190508181036000830152611a12816119d6565b9050919050565b6000819050919050565b6000611a3e611a39611a348461140a565b611a19565b61140a565b9050919050565b6000611a5082611a23565b9050919050565b6000611a6282611a45565b9050919050565b611a7281611a57565b82525050565b6000606082019050611a8d60008301866118ee565b611a9a6020830185611a69565b611aa760408301846115c0565b949350505050565b600060a082019050611ac460008301886118ee565b611ad160208301876115c0565b611ade6040830186611a69565b611aeb6060830185611a69565b611af860808301846115c0565b9695505050505050565b6000611b0d8261144b565b9150611b188361144b565b925082821015611b2b57611b2a6116da565b5b828203905092915050565b7f5265656e7472616e637947756172643a207265656e7472616e742063616c6c00600082015250565b6000611b6c601f83611805565b9150611b7782611b36565b602082019050919050565b60006020820190508181036000830152611b9b81611b5f565b9050919050565b7f436f756e7465723a2064656372656d656e74206f766572666c6f770000000000600082015250565b6000611bd8601b83611805565b9150611be382611ba2565b602082019050919050565b60006020820190508181036000830152611c0781611bcb565b905091905056fea264697066735822122008095af2bdad2393cbaaa87a6514129c3f9ca21dbed1a362d5dc5ffb9871da9464736f6c634300080d0033",
  "immutableReferences": {},
  "source": "// SPDX-License-Identifier: MIT\npragma solidity ^0.8.13;\n\nimport \"@openzeppelin/contracts/utils/Counters.sol\";\nimport \"@openzeppelin/contracts/token/ERC721/ERC721.sol\";\nimport \"@openzeppelin/contracts/security/ReentrancyGuard.sol\";\n\ncontract MonkeMarketplace is ReentrancyGuard {\n    using Counters for Counters.Counter;\n    Counters.Counter private _nftsSold;\n    Counters.Counter private _nftCount;\n    uint256 public LISTING_FEE = 0.001 ether;\n    address payable private _marketOwner;\n    mapping(uint256 => NFT) private _idToNFT;\n    struct NFT {\n        address nftContract;\n        uint256 tokenId;\n        address payable seller;\n        address payable owner;\n        uint256 price;\n        bool listed;\n    }\n    event NFTListed(\n        address nftContract,\n        uint256 tokenId,\n        address seller,\n        address owner,\n        uint256 price\n    );\n    event NFTSold(\n        address nftContract,\n        uint256 tokenId,\n        address seller,\n        address owner,\n        uint256 price\n    );\n\n    constructor() {\n        _marketOwner = payable(msg.sender);\n    }\n\n    // List the NFT on the marketplace\n    function listNft(\n        address _nftContract,\n        uint256 _tokenId,\n        uint256 _price\n    ) public payable nonReentrant {\n        require(_price > 0, \"Price must be at least 1 wei\");\n        require(msg.value == LISTING_FEE, \"Not enough ether for listing fee\");\n\n        IERC721(_nftContract).transferFrom(msg.sender, address(this), _tokenId);\n\n        _nftCount.increment();\n\n        _idToNFT[_tokenId] = NFT(\n            _nftContract,\n            _tokenId,\n            payable(msg.sender),\n            payable(address(this)),\n            _price,\n            true\n        );\n\n        emit NFTListed(\n            _nftContract,\n            _tokenId,\n            msg.sender,\n            address(this),\n            _price\n        );\n    }\n\n    // Buy an NFT\n    function buyNft(address _nftContract, uint256 _tokenId)\n        public\n        payable\n        nonReentrant\n    {\n        NFT storage nft = _idToNFT[_tokenId];\n        require(\n            msg.value >= nft.price,\n            \"Not enough ether to cover asking price\"\n        );\n\n        address payable buyer = payable(msg.sender);\n        payable(nft.seller).transfer(msg.value);\n        IERC721(_nftContract).transferFrom(address(this), buyer, nft.tokenId);\n        _marketOwner.transfer(LISTING_FEE);\n        nft.owner = buyer;\n        nft.listed = false;\n\n        _nftsSold.increment();\n        emit NFTSold(_nftContract, nft.tokenId, nft.seller, buyer, msg.value);\n    }\n\n    // Resell an NFT purchased from the marketplace\n    function resellNft(\n        address _nftContract,\n        uint256 _tokenId,\n        uint256 _price\n    ) public payable nonReentrant {\n        require(_price > 0, \"Price must be at least 1 wei\");\n        require(msg.value == LISTING_FEE, \"Not enough ether for listing fee\");\n\n        IERC721(_nftContract).transferFrom(msg.sender, address(this), _tokenId);\n\n        NFT storage nft = _idToNFT[_tokenId];\n        nft.seller = payable(msg.sender);\n        nft.owner = payable(address(this));\n        nft.listed = true;\n        nft.price = _price;\n\n        _nftsSold.decrement();\n        emit NFTListed(\n            _nftContract,\n            _tokenId,\n            msg.sender,\n            address(this),\n            _price\n        );\n    }\n\n    function getListingFee() public view returns (uint256) {\n        return LISTING_FEE;\n    }\n\n    function getListedNfts() public view returns (NFT[] memory) {\n        uint256 nftCount = _nftCount.current();\n        uint256 unsoldNftsCount = nftCount - _nftsSold.current();\n\n        NFT[] memory nfts = new NFT[](unsoldNftsCount);\n        uint256 nftsIndex = 0;\n        for (uint256 i = 0; i < nftCount; i++) {\n            if (_idToNFT[i + 1].listed) {\n                nfts[nftsIndex] = _idToNFT[i + 1];\n                nftsIndex++;\n            }\n        }\n        return nfts;\n    }\n\n    function getMyNfts() public view returns (NFT[] memory) {\n        uint256 nftCount = _nftCount.current();\n        uint256 myNftCount = 0;\n        for (uint256 i = 0; i < nftCount; i++) {\n            if (_idToNFT[i + 1].owner == msg.sender) {\n                myNftCount++;\n            }\n        }\n\n        NFT[] memory nfts = new NFT[](myNftCount);\n        uint256 nftsIndex = 0;\n        for (uint256 i = 0; i < nftCount; i++) {\n            if (_idToNFT[i + 1].owner == msg.sender) {\n                nfts[nftsIndex] = _idToNFT[i + 1];\n                nftsIndex++;\n            }\n        }\n        return nfts;\n    }\n\n    function getMyListedNfts() public view returns (NFT[] memory) {\n        uint256 nftCount = _nftCount.current();\n        uint256 myListedNftCount = 0;\n        for (uint256 i = 0; i < nftCount; i++) {\n            if (\n                _idToNFT[i + 1].seller == msg.sender && _idToNFT[i + 1].listed\n            ) {\n                myListedNftCount++;\n            }\n        }\n\n        NFT[] memory nfts = new NFT[](myListedNftCount);\n        uint256 nftsIndex = 0;\n        for (uint256 i = 0; i < nftCount; i++) {\n            if (\n                _idToNFT[i + 1].seller == msg.sender && _idToNFT[i + 1].listed\n            ) {\n                nfts[nftsIndex] = _idToNFT[i + 1];\n                nftsIndex++;\n            }\n        }\n        return nfts;\n    }\n}\n",
  "sourcePath": "/Users/charlie/monke/client/contracts/ethereum/MonkeMarketplace.sol",
  "compiler": {
    "name": "solc",
    "version": "0.8.13+commit.abaa5c0e.Emscripten.clang"
  },
  "schemaVersion": "3.4.11",
  "updatedAt": "2023-01-16T04:18:03.680Z",
  "networkType": "ethereum",
  "devdoc": {
    "kind": "dev",
    "methods": {},
    "version": 1
  },
  "userdoc": {
    "kind": "user",
    "methods": {},
    "version": 1
  }
}